{
  "_format": "hh-sol-artifact-1",
  "contractName": "FraxSharesOFT",
  "sourceName": "contracts/FraxShares/FraxSharesOFT.sol",
  "abi": [
    {
      "inputs": [
        {
          "internalType": "string",
          "name": "_name",
          "type": "string"
        },
        {
          "internalType": "string",
          "name": "_symbol",
          "type": "string"
        },
        {
          "internalType": "address",
          "name": "_lzEndpoint",
          "type": "address"
        },
        {
          "internalType": "address",
          "name": "_delegate",
          "type": "address"
        }
      ],
      "stateMutability": "nonpayable",
      "type": "constructor"
    },
    {
      "inputs": [
        {
          "internalType": "address",
          "name": "target",
          "type": "address"
        }
      ],
      "name": "AddressEmptyCode",
      "type": "error"
    },
    {
      "inputs": [
        {
          "internalType": "address",
          "name": "account",
          "type": "address"
        }
      ],
      "name": "AddressInsufficientBalance",
      "type": "error"
    },
    {
      "inputs": [
        {
          "internalType": "address",
          "name": "spender",
          "type": "address"
        },
        {
          "internalType": "uint256",
          "name": "allowance",
          "type": "uint256"
        },
        {
          "internalType": "uint256",
          "name": "needed",
          "type": "uint256"
        }
      ],
      "name": "ERC20InsufficientAllowance",
      "type": "error"
    },
    {
      "inputs": [
        {
          "internalType": "address",
          "name": "sender",
          "type": "address"
        },
        {
          "internalType": "uint256",
          "name": "balance",
          "type": "uint256"
        },
        {
          "internalType": "uint256",
          "name": "needed",
          "type": "uint256"
        }
      ],
      "name": "ERC20InsufficientBalance",
      "type": "error"
    },
    {
      "inputs": [
        {
          "internalType": "address",
          "name": "approver",
          "type": "address"
        }
      ],
      "name": "ERC20InvalidApprover",
      "type": "error"
    },
    {
      "inputs": [
        {
          "internalType": "address",
          "name": "receiver",
          "type": "address"
        }
      ],
      "name": "ERC20InvalidReceiver",
      "type": "error"
    },
    {
      "inputs": [
        {
          "internalType": "address",
          "name": "sender",
          "type": "address"
        }
      ],
      "name": "ERC20InvalidSender",
      "type": "error"
    },
    {
      "inputs": [
        {
          "internalType": "address",
          "name": "spender",
          "type": "address"
        }
      ],
      "name": "ERC20InvalidSpender",
      "type": "error"
    },
    {
      "inputs": [],
      "name": "FailedInnerCall",
      "type": "error"
    },
    {
      "inputs": [],
      "name": "InvalidDelegate",
      "type": "error"
    },
    {
      "inputs": [],
      "name": "InvalidEndpointCall",
      "type": "error"
    },
    {
      "inputs": [],
      "name": "InvalidLocalDecimals",
      "type": "error"
    },
    {
      "inputs": [
        {
          "internalType": "bytes",
          "name": "options",
          "type": "bytes"
        }
      ],
      "name": "InvalidOptions",
      "type": "error"
    },
    {
      "inputs": [],
      "name": "LzTokenUnavailable",
      "type": "error"
    },
    {
      "inputs": [
        {
          "internalType": "uint32",
          "name": "eid",
          "type": "uint32"
        }
      ],
      "name": "NoPeer",
      "type": "error"
    },
    {
      "inputs": [
        {
          "internalType": "uint256",
          "name": "msgValue",
          "type": "uint256"
        }
      ],
      "name": "NotEnoughNative",
      "type": "error"
    },
    {
      "inputs": [
        {
          "internalType": "address",
          "name": "minterburner",
          "type": "address"
        }
      ],
      "name": "NotMinterBurner",
      "type": "error"
    },
    {
      "inputs": [
        {
          "internalType": "address",
          "name": "addr",
          "type": "address"
        }
      ],
      "name": "OnlyEndpoint",
      "type": "error"
    },
    {
      "inputs": [
        {
          "internalType": "uint32",
          "name": "eid",
          "type": "uint32"
        },
        {
          "internalType": "bytes32",
          "name": "sender",
          "type": "bytes32"
        }
      ],
      "name": "OnlyPeer",
      "type": "error"
    },
    {
      "inputs": [],
      "name": "OnlySelf",
      "type": "error"
    },
    {
      "inputs": [
        {
          "internalType": "address",
          "name": "owner",
          "type": "address"
        }
      ],
      "name": "OwnableInvalidOwner",
      "type": "error"
    },
    {
      "inputs": [
        {
          "internalType": "address",
          "name": "account",
          "type": "address"
        }
      ],
      "name": "OwnableUnauthorizedAccount",
      "type": "error"
    },
    {
      "inputs": [
        {
          "internalType": "address",
          "name": "token",
          "type": "address"
        }
      ],
      "name": "SafeERC20FailedOperation",
      "type": "error"
    },
    {
      "inputs": [
        {
          "internalType": "bytes",
          "name": "result",
          "type": "bytes"
        }
      ],
      "name": "SimulationResult",
      "type": "error"
    },
    {
      "inputs": [
        {
          "internalType": "uint256",
          "name": "amountLD",
          "type": "uint256"
        },
        {
          "internalType": "uint256",
          "name": "minAmountLD",
          "type": "uint256"
        }
      ],
      "name": "SlippageExceeded",
      "type": "error"
    },
    {
      "anonymous": false,
      "inputs": [
        {
          "indexed": true,
          "internalType": "address",
          "name": "owner",
          "type": "address"
        },
        {
          "indexed": true,
          "internalType": "address",
          "name": "spender",
          "type": "address"
        },
        {
          "indexed": false,
          "internalType": "uint256",
          "name": "value",
          "type": "uint256"
        }
      ],
      "name": "Approval",
      "type": "event"
    },
    {
      "anonymous": false,
      "inputs": [
        {
          "indexed": true,
          "internalType": "address",
          "name": "minterburner",
          "type": "address"
        }
      ],
      "name": "BurnedBy",
      "type": "event"
    },
    {
      "anonymous": false,
      "inputs": [
        {
          "components": [
            {
              "internalType": "uint32",
              "name": "eid",
              "type": "uint32"
            },
            {
              "internalType": "uint16",
              "name": "msgType",
              "type": "uint16"
            },
            {
              "internalType": "bytes",
              "name": "options",
              "type": "bytes"
            }
          ],
          "indexed": false,
          "internalType": "struct EnforcedOptionParam[]",
          "name": "_enforcedOptions",
          "type": "tuple[]"
        }
      ],
      "name": "EnforcedOptionSet",
      "type": "event"
    },
    {
      "anonymous": false,
      "inputs": [
        {
          "indexed": true,
          "internalType": "address",
          "name": "minterburner",
          "type": "address"
        }
      ],
      "name": "MintedBy",
      "type": "event"
    },
    {
      "anonymous": false,
      "inputs": [
        {
          "indexed": true,
          "internalType": "address",
          "name": "minterburner",
          "type": "address"
        }
      ],
      "name": "MinterBurnerAdded",
      "type": "event"
    },
    {
      "anonymous": false,
      "inputs": [
        {
          "indexed": true,
          "internalType": "address",
          "name": "minterburner",
          "type": "address"
        }
      ],
      "name": "MinterBurnerRemoved",
      "type": "event"
    },
    {
      "anonymous": false,
      "inputs": [
        {
          "indexed": false,
          "internalType": "address",
          "name": "inspector",
          "type": "address"
        }
      ],
      "name": "MsgInspectorSet",
      "type": "event"
    },
    {
      "anonymous": false,
      "inputs": [
        {
          "indexed": true,
          "internalType": "bytes32",
          "name": "guid",
          "type": "bytes32"
        },
        {
          "indexed": false,
          "internalType": "uint32",
          "name": "srcEid",
          "type": "uint32"
        },
        {
          "indexed": true,
          "internalType": "address",
          "name": "toAddress",
          "type": "address"
        },
        {
          "indexed": false,
          "internalType": "uint256",
          "name": "amountReceivedLD",
          "type": "uint256"
        }
      ],
      "name": "OFTReceived",
      "type": "event"
    },
    {
      "anonymous": false,
      "inputs": [
        {
          "indexed": true,
          "internalType": "bytes32",
          "name": "guid",
          "type": "bytes32"
        },
        {
          "indexed": false,
          "internalType": "uint32",
          "name": "dstEid",
          "type": "uint32"
        },
        {
          "indexed": true,
          "internalType": "address",
          "name": "fromAddress",
          "type": "address"
        },
        {
          "indexed": false,
          "internalType": "uint256",
          "name": "amountSentLD",
          "type": "uint256"
        },
        {
          "indexed": false,
          "internalType": "uint256",
          "name": "amountReceivedLD",
          "type": "uint256"
        }
      ],
      "name": "OFTSent",
      "type": "event"
    },
    {
      "anonymous": false,
      "inputs": [
        {
          "indexed": true,
          "internalType": "address",
          "name": "previousOwner",
          "type": "address"
        },
        {
          "indexed": true,
          "internalType": "address",
          "name": "newOwner",
          "type": "address"
        }
      ],
      "name": "OwnershipTransferred",
      "type": "event"
    },
    {
      "anonymous": false,
      "inputs": [
        {
          "indexed": false,
          "internalType": "uint32",
          "name": "eid",
          "type": "uint32"
        },
        {
          "indexed": false,
          "internalType": "bytes32",
          "name": "peer",
          "type": "bytes32"
        }
      ],
      "name": "PeerSet",
      "type": "event"
    },
    {
      "anonymous": false,
      "inputs": [
        {
          "indexed": false,
          "internalType": "address",
          "name": "preCrimeAddress",
          "type": "address"
        }
      ],
      "name": "PreCrimeSet",
      "type": "event"
    },
    {
      "anonymous": false,
      "inputs": [
        {
          "indexed": true,
          "internalType": "address",
          "name": "from",
          "type": "address"
        },
        {
          "indexed": true,
          "internalType": "address",
          "name": "to",
          "type": "address"
        },
        {
          "indexed": false,
          "internalType": "uint256",
          "name": "value",
          "type": "uint256"
        }
      ],
      "name": "Transfer",
      "type": "event"
    },
    {
      "inputs": [],
      "name": "SEND",
      "outputs": [
        {
          "internalType": "uint16",
          "name": "",
          "type": "uint16"
        }
      ],
      "stateMutability": "view",
      "type": "function"
    },
    {
      "inputs": [],
      "name": "SEND_AND_CALL",
      "outputs": [
        {
          "internalType": "uint16",
          "name": "",
          "type": "uint16"
        }
      ],
      "stateMutability": "view",
      "type": "function"
    },
    {
      "inputs": [
        {
          "internalType": "address",
          "name": "_minterBurner",
          "type": "address"
        }
      ],
      "name": "addMinterBurner",
      "outputs": [],
      "stateMutability": "nonpayable",
      "type": "function"
    },
    {
      "inputs": [
        {
          "components": [
            {
              "internalType": "uint32",
              "name": "srcEid",
              "type": "uint32"
            },
            {
              "internalType": "bytes32",
              "name": "sender",
              "type": "bytes32"
            },
            {
              "internalType": "uint64",
              "name": "nonce",
              "type": "uint64"
            }
          ],
          "internalType": "struct Origin",
          "name": "origin",
          "type": "tuple"
        }
      ],
      "name": "allowInitializePath",
      "outputs": [
        {
          "internalType": "bool",
          "name": "",
          "type": "bool"
        }
      ],
      "stateMutability": "view",
      "type": "function"
    },
    {
      "inputs": [
        {
          "internalType": "address",
          "name": "owner",
          "type": "address"
        },
        {
          "internalType": "address",
          "name": "spender",
          "type": "address"
        }
      ],
      "name": "allowance",
      "outputs": [
        {
          "internalType": "uint256",
          "name": "",
          "type": "uint256"
        }
      ],
      "stateMutability": "view",
      "type": "function"
    },
    {
      "inputs": [],
      "name": "approvalRequired",
      "outputs": [
        {
          "internalType": "bool",
          "name": "",
          "type": "bool"
        }
      ],
      "stateMutability": "pure",
      "type": "function"
    },
    {
      "inputs": [
        {
          "internalType": "address",
          "name": "spender",
          "type": "address"
        },
        {
          "internalType": "uint256",
          "name": "value",
          "type": "uint256"
        }
      ],
      "name": "approve",
      "outputs": [
        {
          "internalType": "bool",
          "name": "",
          "type": "bool"
        }
      ],
      "stateMutability": "nonpayable",
      "type": "function"
    },
    {
      "inputs": [
        {
          "internalType": "address",
          "name": "account",
          "type": "address"
        }
      ],
      "name": "balanceOf",
      "outputs": [
        {
          "internalType": "uint256",
          "name": "",
          "type": "uint256"
        }
      ],
      "stateMutability": "view",
      "type": "function"
    },
    {
      "inputs": [
        {
          "internalType": "address",
          "name": "_from",
          "type": "address"
        },
        {
          "internalType": "uint256",
          "name": "_amount",
          "type": "uint256"
        }
      ],
      "name": "burn",
      "outputs": [],
      "stateMutability": "nonpayable",
      "type": "function"
    },
    {
      "inputs": [
        {
          "internalType": "uint32",
          "name": "_eid",
          "type": "uint32"
        },
        {
          "internalType": "uint16",
          "name": "_msgType",
          "type": "uint16"
        },
        {
          "internalType": "bytes",
          "name": "_extraOptions",
          "type": "bytes"
        }
      ],
      "name": "combineOptions",
      "outputs": [
        {
          "internalType": "bytes",
          "name": "",
          "type": "bytes"
        }
      ],
      "stateMutability": "view",
      "type": "function"
    },
    {
      "inputs": [],
      "name": "decimalConversionRate",
      "outputs": [
        {
          "internalType": "uint256",
          "name": "",
          "type": "uint256"
        }
      ],
      "stateMutability": "view",
      "type": "function"
    },
    {
      "inputs": [],
      "name": "decimals",
      "outputs": [
        {
          "internalType": "uint8",
          "name": "",
          "type": "uint8"
        }
      ],
      "stateMutability": "view",
      "type": "function"
    },
    {
      "inputs": [],
      "name": "endpoint",
      "outputs": [
        {
          "internalType": "contract ILayerZeroEndpointV2",
          "name": "",
          "type": "address"
        }
      ],
      "stateMutability": "view",
      "type": "function"
    },
    {
      "inputs": [
        {
          "internalType": "uint32",
          "name": "eid",
          "type": "uint32"
        },
        {
          "internalType": "uint16",
          "name": "msgType",
          "type": "uint16"
        }
      ],
      "name": "enforcedOptions",
      "outputs": [
        {
          "internalType": "bytes",
          "name": "enforcedOption",
          "type": "bytes"
        }
      ],
      "stateMutability": "view",
      "type": "function"
    },
    {
      "inputs": [
        {
          "components": [
            {
              "internalType": "uint32",
              "name": "srcEid",
              "type": "uint32"
            },
            {
              "internalType": "bytes32",
              "name": "sender",
              "type": "bytes32"
            },
            {
              "internalType": "uint64",
              "name": "nonce",
              "type": "uint64"
            }
          ],
          "internalType": "struct Origin",
          "name": "",
          "type": "tuple"
        },
        {
          "internalType": "bytes",
          "name": "",
          "type": "bytes"
        },
        {
          "internalType": "address",
          "name": "_sender",
          "type": "address"
        }
      ],
      "name": "isComposeMsgSender",
      "outputs": [
        {
          "internalType": "bool",
          "name": "",
          "type": "bool"
        }
      ],
      "stateMutability": "view",
      "type": "function"
    },
    {
      "inputs": [
        {
          "internalType": "address",
          "name": "minterburner",
          "type": "address"
        }
      ],
      "name": "isMinterBurner",
      "outputs": [
        {
          "internalType": "bool",
          "name": "canMintAndBurn",
          "type": "bool"
        }
      ],
      "stateMutability": "view",
      "type": "function"
    },
    {
      "inputs": [
        {
          "internalType": "uint32",
          "name": "_eid",
          "type": "uint32"
        },
        {
          "internalType": "bytes32",
          "name": "_peer",
          "type": "bytes32"
        }
      ],
      "name": "isPeer",
      "outputs": [
        {
          "internalType": "bool",
          "name": "",
          "type": "bool"
        }
      ],
      "stateMutability": "view",
      "type": "function"
    },
    {
      "inputs": [
        {
          "components": [
            {
              "internalType": "uint32",
              "name": "srcEid",
              "type": "uint32"
            },
            {
              "internalType": "bytes32",
              "name": "sender",
              "type": "bytes32"
            },
            {
              "internalType": "uint64",
              "name": "nonce",
              "type": "uint64"
            }
          ],
          "internalType": "struct Origin",
          "name": "_origin",
          "type": "tuple"
        },
        {
          "internalType": "bytes32",
          "name": "_guid",
          "type": "bytes32"
        },
        {
          "internalType": "bytes",
          "name": "_message",
          "type": "bytes"
        },
        {
          "internalType": "address",
          "name": "_executor",
          "type": "address"
        },
        {
          "internalType": "bytes",
          "name": "_extraData",
          "type": "bytes"
        }
      ],
      "name": "lzReceive",
      "outputs": [],
      "stateMutability": "payable",
      "type": "function"
    },
    {
      "inputs": [
        {
          "components": [
            {
              "components": [
                {
                  "internalType": "uint32",
                  "name": "srcEid",
                  "type": "uint32"
                },
                {
                  "internalType": "bytes32",
                  "name": "sender",
                  "type": "bytes32"
                },
                {
                  "internalType": "uint64",
                  "name": "nonce",
                  "type": "uint64"
                }
              ],
              "internalType": "struct Origin",
              "name": "origin",
              "type": "tuple"
            },
            {
              "internalType": "uint32",
              "name": "dstEid",
              "type": "uint32"
            },
            {
              "internalType": "address",
              "name": "receiver",
              "type": "address"
            },
            {
              "internalType": "bytes32",
              "name": "guid",
              "type": "bytes32"
            },
            {
              "internalType": "uint256",
              "name": "value",
              "type": "uint256"
            },
            {
              "internalType": "address",
              "name": "executor",
              "type": "address"
            },
            {
              "internalType": "bytes",
              "name": "message",
              "type": "bytes"
            },
            {
              "internalType": "bytes",
              "name": "extraData",
              "type": "bytes"
            }
          ],
          "internalType": "struct InboundPacket[]",
          "name": "_packets",
          "type": "tuple[]"
        }
      ],
      "name": "lzReceiveAndRevert",
      "outputs": [],
      "stateMutability": "payable",
      "type": "function"
    },
    {
      "inputs": [
        {
          "components": [
            {
              "internalType": "uint32",
              "name": "srcEid",
              "type": "uint32"
            },
            {
              "internalType": "bytes32",
              "name": "sender",
              "type": "bytes32"
            },
            {
              "internalType": "uint64",
              "name": "nonce",
              "type": "uint64"
            }
          ],
          "internalType": "struct Origin",
          "name": "_origin",
          "type": "tuple"
        },
        {
          "internalType": "bytes32",
          "name": "_guid",
          "type": "bytes32"
        },
        {
          "internalType": "bytes",
          "name": "_message",
          "type": "bytes"
        },
        {
          "internalType": "address",
          "name": "_executor",
          "type": "address"
        },
        {
          "internalType": "bytes",
          "name": "_extraData",
          "type": "bytes"
        }
      ],
      "name": "lzReceiveSimulate",
      "outputs": [],
      "stateMutability": "payable",
      "type": "function"
    },
    {
      "inputs": [
        {
          "internalType": "address",
          "name": "_to",
          "type": "address"
        },
        {
          "internalType": "uint256",
          "name": "_amount",
          "type": "uint256"
        }
      ],
      "name": "mint",
      "outputs": [],
      "stateMutability": "nonpayable",
      "type": "function"
    },
    {
      "inputs": [],
      "name": "msgInspector",
      "outputs": [
        {
          "internalType": "address",
          "name": "",
          "type": "address"
        }
      ],
      "stateMutability": "view",
      "type": "function"
    },
    {
      "inputs": [],
      "name": "name",
      "outputs": [
        {
          "internalType": "string",
          "name": "",
          "type": "string"
        }
      ],
      "stateMutability": "view",
      "type": "function"
    },
    {
      "inputs": [
        {
          "internalType": "uint32",
          "name": "",
          "type": "uint32"
        },
        {
          "internalType": "bytes32",
          "name": "",
          "type": "bytes32"
        }
      ],
      "name": "nextNonce",
      "outputs": [
        {
          "internalType": "uint64",
          "name": "nonce",
          "type": "uint64"
        }
      ],
      "stateMutability": "view",
      "type": "function"
    },
    {
      "inputs": [],
      "name": "oApp",
      "outputs": [
        {
          "internalType": "address",
          "name": "",
          "type": "address"
        }
      ],
      "stateMutability": "view",
      "type": "function"
    },
    {
      "inputs": [],
      "name": "oAppVersion",
      "outputs": [
        {
          "internalType": "uint64",
          "name": "senderVersion",
          "type": "uint64"
        },
        {
          "internalType": "uint64",
          "name": "receiverVersion",
          "type": "uint64"
        }
      ],
      "stateMutability": "pure",
      "type": "function"
    },
    {
      "inputs": [],
      "name": "oftVersion",
      "outputs": [
        {
          "internalType": "bytes4",
          "name": "interfaceId",
          "type": "bytes4"
        },
        {
          "internalType": "uint64",
          "name": "version",
          "type": "uint64"
        }
      ],
      "stateMutability": "pure",
      "type": "function"
    },
    {
      "inputs": [],
      "name": "owner",
      "outputs": [
        {
          "internalType": "address",
          "name": "",
          "type": "address"
        }
      ],
      "stateMutability": "view",
      "type": "function"
    },
    {
      "inputs": [
        {
          "internalType": "uint32",
          "name": "eid",
          "type": "uint32"
        }
      ],
      "name": "peers",
      "outputs": [
        {
          "internalType": "bytes32",
          "name": "peer",
          "type": "bytes32"
        }
      ],
      "stateMutability": "view",
      "type": "function"
    },
    {
      "inputs": [],
      "name": "preCrime",
      "outputs": [
        {
          "internalType": "address",
          "name": "",
          "type": "address"
        }
      ],
      "stateMutability": "view",
      "type": "function"
    },
    {
      "inputs": [
        {
          "components": [
            {
              "internalType": "uint32",
              "name": "dstEid",
              "type": "uint32"
            },
            {
              "internalType": "bytes32",
              "name": "to",
              "type": "bytes32"
            },
            {
              "internalType": "uint256",
              "name": "amountLD",
              "type": "uint256"
            },
            {
              "internalType": "uint256",
              "name": "minAmountLD",
              "type": "uint256"
            },
            {
              "internalType": "bytes",
              "name": "extraOptions",
              "type": "bytes"
            },
            {
              "internalType": "bytes",
              "name": "composeMsg",
              "type": "bytes"
            },
            {
              "internalType": "bytes",
              "name": "oftCmd",
              "type": "bytes"
            }
          ],
          "internalType": "struct SendParam",
          "name": "_sendParam",
          "type": "tuple"
        }
      ],
      "name": "quoteOFT",
      "outputs": [
        {
          "components": [
            {
              "internalType": "uint256",
              "name": "minAmountLD",
              "type": "uint256"
            },
            {
              "internalType": "uint256",
              "name": "maxAmountLD",
              "type": "uint256"
            }
          ],
          "internalType": "struct OFTLimit",
          "name": "oftLimit",
          "type": "tuple"
        },
        {
          "components": [
            {
              "internalType": "int256",
              "name": "feeAmountLD",
              "type": "int256"
            },
            {
              "internalType": "string",
              "name": "description",
              "type": "string"
            }
          ],
          "internalType": "struct OFTFeeDetail[]",
          "name": "oftFeeDetails",
          "type": "tuple[]"
        },
        {
          "components": [
            {
              "internalType": "uint256",
              "name": "amountSentLD",
              "type": "uint256"
            },
            {
              "internalType": "uint256",
              "name": "amountReceivedLD",
              "type": "uint256"
            }
          ],
          "internalType": "struct OFTReceipt",
          "name": "oftReceipt",
          "type": "tuple"
        }
      ],
      "stateMutability": "view",
      "type": "function"
    },
    {
      "inputs": [
        {
          "components": [
            {
              "internalType": "uint32",
              "name": "dstEid",
              "type": "uint32"
            },
            {
              "internalType": "bytes32",
              "name": "to",
              "type": "bytes32"
            },
            {
              "internalType": "uint256",
              "name": "amountLD",
              "type": "uint256"
            },
            {
              "internalType": "uint256",
              "name": "minAmountLD",
              "type": "uint256"
            },
            {
              "internalType": "bytes",
              "name": "extraOptions",
              "type": "bytes"
            },
            {
              "internalType": "bytes",
              "name": "composeMsg",
              "type": "bytes"
            },
            {
              "internalType": "bytes",
              "name": "oftCmd",
              "type": "bytes"
            }
          ],
          "internalType": "struct SendParam",
          "name": "_sendParam",
          "type": "tuple"
        },
        {
          "internalType": "bool",
          "name": "_payInLzToken",
          "type": "bool"
        }
      ],
      "name": "quoteSend",
      "outputs": [
        {
          "components": [
            {
              "internalType": "uint256",
              "name": "nativeFee",
              "type": "uint256"
            },
            {
              "internalType": "uint256",
              "name": "lzTokenFee",
              "type": "uint256"
            }
          ],
          "internalType": "struct MessagingFee",
          "name": "msgFee",
          "type": "tuple"
        }
      ],
      "stateMutability": "view",
      "type": "function"
    },
    {
      "inputs": [
        {
          "internalType": "address",
          "name": "_minterBurner",
          "type": "address"
        }
      ],
      "name": "removeMinterBurner",
      "outputs": [],
      "stateMutability": "nonpayable",
      "type": "function"
    },
    {
      "inputs": [],
      "name": "renounceOwnership",
      "outputs": [],
      "stateMutability": "nonpayable",
      "type": "function"
    },
    {
      "inputs": [
        {
          "components": [
            {
              "internalType": "uint32",
              "name": "dstEid",
              "type": "uint32"
            },
            {
              "internalType": "bytes32",
              "name": "to",
              "type": "bytes32"
            },
            {
              "internalType": "uint256",
              "name": "amountLD",
              "type": "uint256"
            },
            {
              "internalType": "uint256",
              "name": "minAmountLD",
              "type": "uint256"
            },
            {
              "internalType": "bytes",
              "name": "extraOptions",
              "type": "bytes"
            },
            {
              "internalType": "bytes",
              "name": "composeMsg",
              "type": "bytes"
            },
            {
              "internalType": "bytes",
              "name": "oftCmd",
              "type": "bytes"
            }
          ],
          "internalType": "struct SendParam",
          "name": "_sendParam",
          "type": "tuple"
        },
        {
          "components": [
            {
              "internalType": "uint256",
              "name": "nativeFee",
              "type": "uint256"
            },
            {
              "internalType": "uint256",
              "name": "lzTokenFee",
              "type": "uint256"
            }
          ],
          "internalType": "struct MessagingFee",
          "name": "_fee",
          "type": "tuple"
        },
        {
          "internalType": "address",
          "name": "_refundAddress",
          "type": "address"
        }
      ],
      "name": "send",
      "outputs": [
        {
          "components": [
            {
              "internalType": "bytes32",
              "name": "guid",
              "type": "bytes32"
            },
            {
              "internalType": "uint64",
              "name": "nonce",
              "type": "uint64"
            },
            {
              "components": [
                {
                  "internalType": "uint256",
                  "name": "nativeFee",
                  "type": "uint256"
                },
                {
                  "internalType": "uint256",
                  "name": "lzTokenFee",
                  "type": "uint256"
                }
              ],
              "internalType": "struct MessagingFee",
              "name": "fee",
              "type": "tuple"
            }
          ],
          "internalType": "struct MessagingReceipt",
          "name": "msgReceipt",
          "type": "tuple"
        },
        {
          "components": [
            {
              "internalType": "uint256",
              "name": "amountSentLD",
              "type": "uint256"
            },
            {
              "internalType": "uint256",
              "name": "amountReceivedLD",
              "type": "uint256"
            }
          ],
          "internalType": "struct OFTReceipt",
          "name": "oftReceipt",
          "type": "tuple"
        }
      ],
      "stateMutability": "payable",
      "type": "function"
    },
    {
      "inputs": [
        {
          "internalType": "address",
          "name": "_delegate",
          "type": "address"
        }
      ],
      "name": "setDelegate",
      "outputs": [],
      "stateMutability": "nonpayable",
      "type": "function"
    },
    {
      "inputs": [
        {
          "components": [
            {
              "internalType": "uint32",
              "name": "eid",
              "type": "uint32"
            },
            {
              "internalType": "uint16",
              "name": "msgType",
              "type": "uint16"
            },
            {
              "internalType": "bytes",
              "name": "options",
              "type": "bytes"
            }
          ],
          "internalType": "struct EnforcedOptionParam[]",
          "name": "_enforcedOptions",
          "type": "tuple[]"
        }
      ],
      "name": "setEnforcedOptions",
      "outputs": [],
      "stateMutability": "nonpayable",
      "type": "function"
    },
    {
      "inputs": [
        {
          "internalType": "address",
          "name": "_msgInspector",
          "type": "address"
        }
      ],
      "name": "setMsgInspector",
      "outputs": [],
      "stateMutability": "nonpayable",
      "type": "function"
    },
    {
      "inputs": [
        {
          "internalType": "uint32",
          "name": "_eid",
          "type": "uint32"
        },
        {
          "internalType": "bytes32",
          "name": "_peer",
          "type": "bytes32"
        }
      ],
      "name": "setPeer",
      "outputs": [],
      "stateMutability": "nonpayable",
      "type": "function"
    },
    {
      "inputs": [
        {
          "internalType": "address",
          "name": "_preCrime",
          "type": "address"
        }
      ],
      "name": "setPreCrime",
      "outputs": [],
      "stateMutability": "nonpayable",
      "type": "function"
    },
    {
      "inputs": [],
      "name": "sharedDecimals",
      "outputs": [
        {
          "internalType": "uint8",
          "name": "",
          "type": "uint8"
        }
      ],
      "stateMutability": "view",
      "type": "function"
    },
    {
      "inputs": [],
      "name": "symbol",
      "outputs": [
        {
          "internalType": "string",
          "name": "",
          "type": "string"
        }
      ],
      "stateMutability": "view",
      "type": "function"
    },
    {
      "inputs": [],
      "name": "token",
      "outputs": [
        {
          "internalType": "address",
          "name": "",
          "type": "address"
        }
      ],
      "stateMutability": "view",
      "type": "function"
    },
    {
      "inputs": [],
      "name": "totalSupply",
      "outputs": [
        {
          "internalType": "uint256",
          "name": "",
          "type": "uint256"
        }
      ],
      "stateMutability": "view",
      "type": "function"
    },
    {
      "inputs": [
        {
          "internalType": "address",
          "name": "to",
          "type": "address"
        },
        {
          "internalType": "uint256",
          "name": "value",
          "type": "uint256"
        }
      ],
      "name": "transfer",
      "outputs": [
        {
          "internalType": "bool",
          "name": "",
          "type": "bool"
        }
      ],
      "stateMutability": "nonpayable",
      "type": "function"
    },
    {
      "inputs": [
        {
          "internalType": "address",
          "name": "from",
          "type": "address"
        },
        {
          "internalType": "address",
          "name": "to",
          "type": "address"
        },
        {
          "internalType": "uint256",
          "name": "value",
          "type": "uint256"
        }
      ],
      "name": "transferFrom",
      "outputs": [
        {
          "internalType": "bool",
          "name": "",
          "type": "bool"
        }
      ],
      "stateMutability": "nonpayable",
      "type": "function"
    },
    {
      "inputs": [
        {
          "internalType": "address",
          "name": "newOwner",
          "type": "address"
        }
      ],
      "name": "transferOwnership",
      "outputs": [],
      "stateMutability": "nonpayable",
      "type": "function"
    }
  ],
  "bytecode": "0x60c06040523480156200001157600080fd5b506040516200398a3803806200398a8339810160408190526200003491620002da565b8383838383838383838360128484818181818d6001600160a01b0381166200007657604051631e4fbdf760e01b81526000600482015260240160405180910390fd5b6200008181620001a0565b506001600160a01b038083166080528116620000b057604051632d618d8160e21b815260040160405180910390fd5b60805160405163ca5eb5e160e01b81526001600160a01b0383811660048301529091169063ca5eb5e190602401600060405180830381600087803b158015620000f857600080fd5b505af11580156200010d573d6000803e3d6000fd5b505050505050505062000125620001f060201b60201c565b60ff168360ff1610156200014c576040516301e9714b60e41b815260040160405180910390fd5b620001596006846200037f565b6200016690600a6200049e565b60a05250600891506200017c9050838262000547565b5060096200018b828262000547565b50505050505050505050505050505062000613565b600080546001600160a01b038381166001600160a01b0319831681178455604051919092169283917f8be0079c531659141344cd1fd0a4f28419497f9722a3daafe3b4186f6b6457e09190a35050565b600690565b634e487b7160e01b600052604160045260246000fd5b600082601f8301126200021d57600080fd5b81516001600160401b03808211156200023a576200023a620001f5565b604051601f8301601f19908116603f01168101908282118183101715620002655762000265620001f5565b81604052838152602092508660208588010111156200028357600080fd5b600091505b83821015620002a7578582018301518183018401529082019062000288565b6000602085830101528094505050505092915050565b80516001600160a01b0381168114620002d557600080fd5b919050565b60008060008060808587031215620002f157600080fd5b84516001600160401b03808211156200030957600080fd5b62000317888389016200020b565b955060208701519150808211156200032e57600080fd5b506200033d878288016200020b565b9350506200034e60408601620002bd565b91506200035e60608601620002bd565b905092959194509250565b634e487b7160e01b600052601160045260246000fd5b60ff82811682821603908111156200039b576200039b62000369565b92915050565b600181815b80851115620003e2578160001904821115620003c657620003c662000369565b80851615620003d457918102915b93841c9390800290620003a6565b509250929050565b600082620003fb575060016200039b565b816200040a575060006200039b565b81600181146200042357600281146200042e576200044e565b60019150506200039b565b60ff84111562000442576200044262000369565b50506001821b6200039b565b5060208310610133831016604e8410600b841016171562000473575081810a6200039b565b6200047f8383620003a1565b806000190482111562000496576200049662000369565b029392505050565b6000620004af60ff841683620003ea565b9392505050565b600181811c90821680620004cb57607f821691505b602082108103620004ec57634e487b7160e01b600052602260045260246000fd5b50919050565b601f82111562000542576000816000526020600020601f850160051c810160208610156200051d5750805b601f850160051c820191505b818110156200053e5782815560010162000529565b5050505b505050565b81516001600160401b03811115620005635762000563620001f5565b6200057b81620005748454620004b6565b84620004f2565b602080601f831160018114620005b357600084156200059a5750858301515b600019600386901b1c1916600185901b1785556200053e565b600085815260208120601f198616915b82811015620005e457888601518255948401946001909101908401620005c3565b5085821015620006035787850151600019600388901b60f8161c191681555b5050505050600190811b01905550565b60805160a05161330b6200067f600039600081816106e501528181611db401528181611e2901526120190152600081816105a401528181610a740152818161130601528181611585015281816118f001528181611c03015281816120e4015261219b015261330b6000f3fe6080604052600436106102885760003560e01c806370a082311161015a578063b98bd070116100c1578063d045a0dc1161007a578063d045a0dc1461083c578063d42438851461084f578063dd62ed3e1461086f578063f2fde38b146108b5578063fc0c546a14610528578063ff7bd03d146108d557600080fd5b8063b98bd0701461077b578063bb0b6a531461079b578063bc70b354146107c8578063bd815db0146107e8578063c7c7f5b3146107fb578063ca5eb5e11461081c57600080fd5b806395d89b411161011357806395d89b41146106be578063963efcaa146106d35780639dc29fac146107075780639f68b96414610727578063a9059cbb1461073b578063b731ea0a1461075b57600080fd5b806370a08231146105e6578063715018a61461061c5780637d25a05e1461063157806382413eac1461066c578063857749b01461068c5780638da5cb5b146106a057600080fd5b806330404895116101fe57806342679683116101b757806342679683146104f857806352ae2879146105285780635535d4611461053b5780635a0dfe4d1461055b5780635e280f11146105925780636fc1b31e146105c657600080fd5b80633040489514610429578063313ce567146104495780633400288b1461046b57806338344f2d1461048b5780633b6f743b146104ab57806340c10f19146104d857600080fd5b8063134d4f2511610250578063134d4f2514610364578063156a0d0f1461038c57806317442b70146103b357806318160ddd146103d55780631f5e1334146103f457806323b872dd1461040957600080fd5b806306fdde031461028d578063095ea7b3146102b85780630d35b415146102e8578063111ecdad1461031757806313137d651461034f575b600080fd5b34801561029957600080fd5b506102a26108f5565b6040516102af91906123f6565b60405180910390f35b3480156102c457600080fd5b506102d86102d336600461241e565b610987565b60405190151581526020016102af565b3480156102f457600080fd5b50610308610303366004612462565b6109a1565b6040516102af93929190612496565b34801561032357600080fd5b50600454610337906001600160a01b031681565b6040516001600160a01b0390911681526020016102af565b61036261035d366004612589565b610a72565b005b34801561037057600080fd5b50610379600281565b60405161ffff90911681526020016102af565b34801561039857600080fd5b506040805162b9270b60e21b815260016020820152016102af565b3480156103bf57600080fd5b50604080516001815260026020820152016102af565b3480156103e157600080fd5b506007545b6040519081526020016102af565b34801561040057600080fd5b50610379600181565b34801561041557600080fd5b506102d8610424366004612628565b610b32565b34801561043557600080fd5b50610362610444366004612669565b610b58565b34801561045557600080fd5b5060125b60405160ff90911681526020016102af565b34801561047757600080fd5b5061036261048636600461269f565b610ba9565b34801561049757600080fd5b506103626104a6366004612669565b610bbf565b3480156104b757600080fd5b506104cb6104c63660046126c9565b610c13565b6040516102af919061271a565b3480156104e457600080fd5b506103626104f336600461241e565b610c7a565b34801561050457600080fd5b506102d8610513366004612669565b600a6020526000908152604090205460ff1681565b34801561053457600080fd5b5030610337565b34801561054757600080fd5b506102a2610556366004612743565b610ce5565b34801561056757600080fd5b506102d861057636600461269f565b63ffffffff919091166000908152600160205260409020541490565b34801561059e57600080fd5b506103377f000000000000000000000000000000000000000000000000000000000000000081565b3480156105d257600080fd5b506103626105e1366004612669565b610d8a565b3480156105f257600080fd5b506103e6610601366004612669565b6001600160a01b031660009081526005602052604090205490565b34801561062857600080fd5b50610362610de7565b34801561063d57600080fd5b5061065461064c36600461269f565b600092915050565b6040516001600160401b0390911681526020016102af565b34801561067857600080fd5b506102d8610687366004612776565b610dfb565b34801561069857600080fd5b506006610459565b3480156106ac57600080fd5b506000546001600160a01b0316610337565b3480156106ca57600080fd5b506102a2610e10565b3480156106df57600080fd5b506103e67f000000000000000000000000000000000000000000000000000000000000000081565b34801561071357600080fd5b5061036261072236600461241e565b610e1f565b34801561073357600080fd5b5060006102d8565b34801561074757600080fd5b506102d861075636600461241e565b610e8a565b34801561076757600080fd5b50600254610337906001600160a01b031681565b34801561078757600080fd5b50610362610796366004612820565b610e98565b3480156107a757600080fd5b506103e66107b6366004612861565b60016020526000908152604090205481565b3480156107d457600080fd5b506102a26107e336600461287c565b610eb2565b6103626107f6366004612820565b61105a565b61080e6108093660046128dc565b6111e4565b6040516102af929190612949565b34801561082857600080fd5b50610362610837366004612669565b6112df565b61036261084a366004612589565b611365565b34801561085b57600080fd5b5061036261086a366004612669565b611394565b34801561087b57600080fd5b506103e661088a36600461299b565b6001600160a01b03918216600090815260066020908152604080832093909416825291909152205490565b3480156108c157600080fd5b506103626108d0366004612669565b6113ea565b3480156108e157600080fd5b506102d86108f03660046129c9565b611428565b606060088054610904906129e5565b80601f0160208091040260200160405190810160405280929190818152602001828054610930906129e5565b801561097d5780601f106109525761010080835404028352916020019161097d565b820191906000526020600020905b81548152906001019060200180831161096057829003601f168201915b5050505050905090565b60003361099581858561145e565b60019150505b92915050565b604080518082019091526000808252602082015260606109d4604051806040016040528060008152602001600081525090565b60408051808201825260008082526001600160401b03602080840182905284518381529081019094529195509182610a2f565b604080518082019091526000815260606020820152815260200190600190039081610a075790505b509350600080610a54604089013560608a0135610a4f60208c018c612861565b611470565b60408051808201909152918252602082015296989597505050505050565b7f00000000000000000000000000000000000000000000000000000000000000006001600160a01b03163314610ac2576040516391ac5e4f60e01b81523360048201526024015b60405180910390fd5b60208701803590610adc90610ad7908a612861565b6114b4565b14610b1a57610aee6020880188612861565b60405163309afaf360e21b815263ffffffff909116600482015260208801356024820152604401610ab9565b610b29878787878787876114f0565b50505050505050565b600033610b40858285611657565b610b4b8585856116d5565b60019150505b9392505050565b610b60611734565b6001600160a01b0381166000818152600a6020526040808220805460ff19169055517f94472e688c0a610cdbc2e2380d0f63b071fce4151d47a45c3ae710b97e98103d9190a250565b610bb1611734565b610bbb8282611761565b5050565b610bc7611734565b6001600160a01b0381166000818152600a6020526040808220805460ff19166001179055517f1df4871f49b282552f71dbe837936a42397a14d86d1974961e55a234c6b09ba99190a250565b60408051808201909152600080825260208201526000610c4360408501356060860135610a4f6020880188612861565b915050600080610c5386846117b6565b9092509050610c70610c686020880188612861565b8383886118da565b9695505050505050565b336000908152600a602052604090205460ff16610cac5760405163032df62b60e51b8152336004820152602401610ab9565b610cb682826119bb565b60405133907f19cd9a768c1f5c4ca4618937412f1f4eb7faf21b1702c29f0c2679a406516c6d90600090a25050565b600360209081526000928352604080842090915290825290208054610d09906129e5565b80601f0160208091040260200160405190810160405280929190818152602001828054610d35906129e5565b8015610d825780601f10610d5757610100808354040283529160200191610d82565b820191906000526020600020905b815481529060010190602001808311610d6557829003601f168201915b505050505081565b610d92611734565b600480546001600160a01b0319166001600160a01b0383169081179091556040519081527ff0be4f1e87349231d80c36b33f9e8639658eeaf474014dee15a3e6a4d4414197906020015b60405180910390a150565b610def611734565b610df960006119f1565b565b6001600160a01b03811630145b949350505050565b606060098054610904906129e5565b336000908152600a602052604090205460ff16610e515760405163032df62b60e51b8152336004820152602401610ab9565b610e5b8282611a41565b60405133907f7b7430b924128d1f6fcfeaf51adafcfffc98730df2682429ef0f25770871e76490600090a25050565b6000336109958185856116d5565b610ea0611734565b610bbb610ead8284612ad0565b611a77565b63ffffffff8416600090815260036020908152604080832061ffff87168452909152812080546060929190610ee6906129e5565b80601f0160208091040260200160405190810160405280929190818152602001828054610f12906129e5565b8015610f5f5780601f10610f3457610100808354040283529160200191610f5f565b820191906000526020600020905b815481529060010190602001808311610f4257829003601f168201915b505050505090508051600003610faf5783838080601f016020809104026020016040519081016040528093929190818152602001838380828437600092019190915250929450610e089350505050565b6000839003610fbf579050610e08565b6002831061103d5761100684848080601f016020809104026020016040519081016040528093929190818152602001838380828437600092019190915250611b7e92505050565b806110148460028188612be5565b60405160200161102693929190612c0f565b604051602081830303815290604052915050610e08565b8383604051639a6d49cd60e01b8152600401610ab9929190612c60565b60005b81811015611163573683838381811061107857611078612c74565b905060200281019061108a9190612c8a565b90506110bd61109c6020830183612861565b602083013563ffffffff919091166000908152600160205260409020541490565b6110c7575061115b565b3063d045a0dc60c08301358360a08101356110e6610100830183612cab565b6110f7610100890160e08a01612669565b6111056101208a018a612cab565b6040518963ffffffff1660e01b81526004016111279796959493929190612d06565b6000604051808303818588803b15801561114057600080fd5b505af1158015611154573d6000803e3d6000fd5b5050505050505b60010161105d565b50336001600160a01b0316638e9e70996040518163ffffffff1660e01b8152600401600060405180830381865afa1580156111a2573d6000803e3d6000fd5b505050506040513d6000823e601f3d908101601f191682016040526111ca9190810190612d8c565b604051638351eea760e01b8152600401610ab991906123f6565b6111ec61235f565b604080518082019091526000808252602082015260008061122333604089013560608a013561121e60208c018c612861565b611baa565b9150915060008061123489846117b6565b909250905061126061124960208b018b612861565b838361125a368d90038d018d612df9565b8b611bd0565b60408051808201909152858152602080820186905282519298509096503391907f85496b760a4b7f8d66384b9df21b381f5d1b1e79f229a47aaf4c232edc2fe59a906112ae908d018d612861565b6040805163ffffffff909216825260208201899052810187905260600160405180910390a350505050935093915050565b6112e7611734565b60405163ca5eb5e160e01b81526001600160a01b0382811660048301527f0000000000000000000000000000000000000000000000000000000000000000169063ca5eb5e190602401600060405180830381600087803b15801561134a57600080fd5b505af115801561135e573d6000803e3d6000fd5b5050505050565b3330146113855760405163029a949d60e31b815260040160405180910390fd5b610b2987878787878787610b1a565b61139c611734565b600280546001600160a01b0319166001600160a01b0383169081179091556040519081527fd48d879cef83a1c0bdda516f27b13ddb1b3f8bbac1c9e1511bb2a659c242776090602001610ddc565b6113f2611734565b6001600160a01b03811661141c57604051631e4fbdf760e01b815260006004820152602401610ab9565b611425816119f1565b50565b60006020820180359060019083906114409086612861565b63ffffffff1681526020810191909152604001600020541492915050565b61146b8383836001611cdb565b505050565b60008061147c85611db0565b9150819050838110156114ac576040516371c4efed60e01b81526004810182905260248101859052604401610ab9565b935093915050565b63ffffffff81166000908152600160205260408120548061099b5760405163f6ff4fb760e01b815263ffffffff84166004820152602401610ab9565b60006115026114ff8787611de7565b90565b9050600061152e8261151c6115178a8a611dff565b611e22565b61152960208d018d612861565b611e57565b905060288611156115f557600061156b61154e60608c0160408d01612e2b565b61155b60208d018d612861565b846115668c8c611e6b565b611eb6565b604051633e5ac80960e11b81529091506001600160a01b037f00000000000000000000000000000000000000000000000000000000000000001690637cb59012906115c19086908d906000908790600401612e48565b600060405180830381600087803b1580156115db57600080fd5b505af11580156115ef573d6000803e3d6000fd5b50505050505b6001600160a01b038216887fefed6d3500546b29533b128a29e3a94d70788727f0507505ac12eaf2e578fd9c61162e60208d018d612861565b6040805163ffffffff9092168252602082018690520160405180910390a3505050505050505050565b6001600160a01b0383811660009081526006602090815260408083209386168352929052205460001981146116cf57818110156116c057604051637dc7a0d960e11b81526001600160a01b03841660048201526024810182905260448101839052606401610ab9565b6116cf84848484036000611cdb565b50505050565b6001600160a01b0383166116ff57604051634b637e8f60e11b815260006004820152602401610ab9565b6001600160a01b0382166117295760405163ec442f0560e01b815260006004820152602401610ab9565b61146b838383611ee8565b6000546001600160a01b03163314610df95760405163118cdaa760e01b8152336004820152602401610ab9565b63ffffffff8216600081815260016020908152604091829020849055815192835282018390527f238399d427b947898edb290f5ff0f9109849b1c3ba196a42e35f00c50a54b98b910160405180910390a15050565b606080600061181385602001356117cc86612012565b6117d960a0890189612cab565b8080601f01602080910402602001604051908101604052809392919081815260200183838082843760009201919091525061203e92505050565b9093509050600081611826576001611829565b60025b905061184961183b6020880188612861565b826107e360808a018a612cab565b6004549093506001600160a01b0316156118d1576004805460405163043a78eb60e01b81526001600160a01b039091169163043a78eb9161188e918891889101612e79565b602060405180830381865afa1580156118ab573d6000803e3d6000fd5b505050506040513d601f19601f820116820180604052508101906118cf9190612e9e565b505b50509250929050565b60408051808201909152600080825260208201527f00000000000000000000000000000000000000000000000000000000000000006001600160a01b031663ddc28c586040518060a001604052808863ffffffff16815260200161193d896114b4565b8152602001878152602001868152602001851515815250306040518363ffffffff1660e01b8152600401611972929190612ebb565b6040805180830381865afa15801561198e573d6000803e3d6000fd5b505050506040513d601f19601f820116820180604052508101906119b29190612f64565b95945050505050565b6001600160a01b0382166119e55760405163ec442f0560e01b815260006004820152602401610ab9565b610bbb60008383611ee8565b600080546001600160a01b038381166001600160a01b0319831681178455604051919092169283917f8be0079c531659141344cd1fd0a4f28419497f9722a3daafe3b4186f6b6457e09190a35050565b6001600160a01b038216611a6b57604051634b637e8f60e11b815260006004820152602401610ab9565b610bbb82600083611ee8565b60005b8151811015611b4e57611aa9828281518110611a9857611a98612c74565b602002602001015160400151611b7e565b818181518110611abb57611abb612c74565b60200260200101516040015160036000848481518110611add57611add612c74565b60200260200101516000015163ffffffff1663ffffffff1681526020019081526020016000206000848481518110611b1757611b17612c74565b60200260200101516020015161ffff1661ffff1681526020019081526020016000209081611b459190612fd0565b50600101611a7a565b507fbe4864a8e820971c0247f5992e2da559595f7bf076a21cb5928d443d2a13b67481604051610ddc919061308f565b600281015161ffff8116600314610bbb5781604051639a6d49cd60e01b8152600401610ab991906123f6565b600080611bb8858585611470565b9092509050611bc78683611a41565b94509492505050565b611bd861235f565b6000611be784600001516120b8565b602085015190915015611c0157611c0184602001516120e0565b7f00000000000000000000000000000000000000000000000000000000000000006001600160a01b0316632637a450826040518060a001604052808b63ffffffff168152602001611c518c6114b4565b81526020018a815260200189815260200160008960200151111515815250866040518463ffffffff1660e01b8152600401611c8d929190612ebb565b60806040518083038185885af1158015611cab573d6000803e3d6000fd5b50505050506040513d601f19601f82011682018060405250810190611cd0919061311a565b979650505050505050565b6001600160a01b038416611d055760405163e602df0560e01b815260006004820152602401610ab9565b6001600160a01b038316611d2f57604051634a1406b160e11b815260006004820152602401610ab9565b6001600160a01b03808516600090815260066020908152604080832093871683529290522082905580156116cf57826001600160a01b0316846001600160a01b03167f8c5be1e5ebec7d5bd14f71427d1e84f3dd0314c0f7b2291e5b200ac8c7c3b92584604051611da291815260200190565b60405180910390a350505050565b60007f0000000000000000000000000000000000000000000000000000000000000000611ddd818461317a565b61099b919061319c565b6000611df66020828486612be5565b610b51916131b3565b6000611e0f602860208486612be5565b611e18916131d1565b60c01c9392505050565b600061099b7f00000000000000000000000000000000000000000000000000000000000000006001600160401b03841661319c565b6000611e6384846119bb565b509092915050565b6060611e7a8260288186612be5565b8080601f016020809104026020016040519081016040528093929190818152602001838380828437600092019190915250929695505050505050565b606084848484604051602001611ecf9493929190613201565b6040516020818303038152906040529050949350505050565b6001600160a01b038316611f13578060076000828254611f089190613250565b90915550611f859050565b6001600160a01b03831660009081526005602052604090205481811015611f665760405163391434e360e21b81526001600160a01b03851660048201526024810182905260448101839052606401610ab9565b6001600160a01b03841660009081526005602052604090209082900390555b6001600160a01b038216611fa157600780548290039055611fc0565b6001600160a01b03821660009081526005602052604090208054820190555b816001600160a01b0316836001600160a01b03167fddf252ad1be2c89b69c2b068fc378daa952ba7f163c4a11628f55a4df523b3ef8360405161200591815260200190565b60405180910390a3505050565b600061099b7f00000000000000000000000000000000000000000000000000000000000000008361317a565b805160609015158061208757848460405160200161207392919091825260c01b6001600160c01b031916602082015260280190565b6040516020818303038152906040526120ae565b8484338560405160200161209e9493929190613263565b6040516020818303038152906040525b9150935093915050565b60008134146120dc576040516304fb820960e51b8152346004820152602401610ab9565b5090565b60007f00000000000000000000000000000000000000000000000000000000000000006001600160a01b031663e4fe1d946040518163ffffffff1660e01b8152600401602060405180830381865afa158015612140573d6000803e3d6000fd5b505050506040513d601f19601f8201168201806040525081019061216491906132a6565b90506001600160a01b03811661218d576040516329b99a9560e11b815260040160405180910390fd5b6040805133602482018190527f00000000000000000000000000000000000000000000000000000000000000006001600160a01b03818116604485015260648085018890528551808603909101815260849094019094526020830180516001600160e01b03166323b872dd60e01b179052610bbb9385169286906116cf90859060006122198383612267565b9050805160001415801561223e57508080602001905181019061223c9190612e9e565b155b1561146b57604051635274afe760e01b81526001600160a01b0384166004820152602401610ab9565b6060610b518383600084600080856001600160a01b0316848660405161228d91906132c3565b60006040518083038185875af1925050503d80600081146122ca576040519150601f19603f3d011682016040523d82523d6000602084013e6122cf565b606091505b5091509150610c708683836060826122ef576122ea82612336565b610b51565b815115801561230657506001600160a01b0384163b155b1561232f57604051639996b31560e01b81526001600160a01b0385166004820152602401610ab9565b5080610b51565b8051156123465780518082602001fd5b604051630a12f52160e11b815260040160405180910390fd5b60405180606001604052806000801916815260200160006001600160401b031681526020016123a1604051806040016040528060008152602001600081525090565b905290565b60005b838110156123c15781810151838201526020016123a9565b50506000910152565b600081518084526123e28160208601602086016123a6565b601f01601f19169290920160200192915050565b602081526000610b5160208301846123ca565b6001600160a01b038116811461142557600080fd5b6000806040838503121561243157600080fd5b823561243c81612409565b946020939093013593505050565b600060e0828403121561245c57600080fd5b50919050565b60006020828403121561247457600080fd5b81356001600160401b0381111561248a57600080fd5b610e088482850161244a565b8351815260208085015190820152600060a08201604060a0604085015281865180845260c08601915060c08160051b8701019350602080890160005b838110156125115788870360bf190185528151805188528301518388018790526124fe878901826123ca565b97505093820193908201906001016124d2565b50508751606088015250505060208501516080850152509050610e08565b60006060828403121561245c57600080fd5b60008083601f84011261255357600080fd5b5081356001600160401b0381111561256a57600080fd5b60208301915083602082850101111561258257600080fd5b9250929050565b600080600080600080600060e0888a0312156125a457600080fd5b6125ae898961252f565b96506060880135955060808801356001600160401b03808211156125d157600080fd5b6125dd8b838c01612541565b909750955060a08a013591506125f282612409565b90935060c0890135908082111561260857600080fd5b506126158a828b01612541565b989b979a50959850939692959293505050565b60008060006060848603121561263d57600080fd5b833561264881612409565b9250602084013561265881612409565b929592945050506040919091013590565b60006020828403121561267b57600080fd5b8135610b5181612409565b803563ffffffff8116811461269a57600080fd5b919050565b600080604083850312156126b257600080fd5b61243c83612686565b801515811461142557600080fd5b600080604083850312156126dc57600080fd5b82356001600160401b038111156126f257600080fd5b6126fe8582860161244a565b925050602083013561270f816126bb565b809150509250929050565b81518152602080830151908201526040810161099b565b803561ffff8116811461269a57600080fd5b6000806040838503121561275657600080fd5b61275f83612686565b915061276d60208401612731565b90509250929050565b60008060008060a0858703121561278c57600080fd5b612796868661252f565b935060608501356001600160401b038111156127b157600080fd5b6127bd87828801612541565b90945092505060808501356127d181612409565b939692955090935050565b60008083601f8401126127ee57600080fd5b5081356001600160401b0381111561280557600080fd5b6020830191508360208260051b850101111561258257600080fd5b6000806020838503121561283357600080fd5b82356001600160401b0381111561284957600080fd5b612855858286016127dc565b90969095509350505050565b60006020828403121561287357600080fd5b610b5182612686565b6000806000806060858703121561289257600080fd5b61289b85612686565b93506128a960208601612731565b925060408501356001600160401b038111156128c457600080fd5b6128d087828801612541565b95989497509550505050565b600080600083850360808112156128f257600080fd5b84356001600160401b0381111561290857600080fd5b6129148782880161244a565b9450506040601f198201121561292957600080fd5b50602084019150606084013561293e81612409565b809150509250925092565b600060c082019050835182526001600160401b0360208501511660208301526040840151612984604084018280518252602090810151910152565b5082516080830152602083015160a0830152610b51565b600080604083850312156129ae57600080fd5b82356129b981612409565b9150602083013561270f81612409565b6000606082840312156129db57600080fd5b610b51838361252f565b600181811c908216806129f957607f821691505b60208210810361245c57634e487b7160e01b600052602260045260246000fd5b634e487b7160e01b600052604160045260246000fd5b604051606081016001600160401b0381118282101715612a5157612a51612a19565b60405290565b604080519081016001600160401b0381118282101715612a5157612a51612a19565b604051601f8201601f191681016001600160401b0381118282101715612aa157612aa1612a19565b604052919050565b60006001600160401b03821115612ac257612ac2612a19565b50601f01601f191660200190565b60006001600160401b0380841115612aea57612aea612a19565b8360051b6020612afb818301612a79565b868152918501918181019036841115612b1357600080fd5b865b84811015612bd957803586811115612b2d5760008081fd5b88016060368290031215612b415760008081fd5b612b49612a2f565b612b5282612686565b8152612b5f868301612731565b8682015260408083013589811115612b775760008081fd5b929092019136601f840112612b8c5760008081fd5b8235612b9f612b9a82612aa9565b612a79565b8181523689838701011115612bb45760008081fd5b818986018a830137600091810189019190915290820152845250918301918301612b15565b50979650505050505050565b60008085851115612bf557600080fd5b83861115612c0257600080fd5b5050820193919092039150565b60008451612c218184602089016123a6565b8201838582376000930192835250909392505050565b81835281816020850137506000828201602090810191909152601f909101601f19169091010190565b602081526000610e08602083018486612c37565b634e487b7160e01b600052603260045260246000fd5b6000823561013e19833603018112612ca157600080fd5b9190910192915050565b6000808335601e19843603018112612cc257600080fd5b8301803591506001600160401b03821115612cdc57600080fd5b60200191503681900382131561258257600080fd5b6001600160401b038116811461142557600080fd5b63ffffffff612d1489612686565b1681526020880135602082015260006040890135612d3181612cf1565b6001600160401b03811660408401525087606083015260e06080830152612d5c60e083018789612c37565b6001600160a01b03861660a084015282810360c0840152612d7e818587612c37565b9a9950505050505050505050565b600060208284031215612d9e57600080fd5b81516001600160401b03811115612db457600080fd5b8201601f81018413612dc557600080fd5b8051612dd3612b9a82612aa9565b818152856020838501011115612de857600080fd5b6119b28260208301602086016123a6565b600060408284031215612e0b57600080fd5b612e13612a57565b82358152602083013560208201528091505092915050565b600060208284031215612e3d57600080fd5b8135610b5181612cf1565b60018060a01b038516815283602082015261ffff83166040820152608060608201526000610c7060808301846123ca565b604081526000612e8c60408301856123ca565b82810360208401526119b281856123ca565b600060208284031215612eb057600080fd5b8151610b51816126bb565b6040815263ffffffff8351166040820152602083015160608201526000604084015160a06080840152612ef160e08401826123ca565b90506060850151603f198483030160a0850152612f0e82826123ca565b60809690960151151560c08501525050506001600160a01b039190911660209091015290565b600060408284031215612f4657600080fd5b612f4e612a57565b9050815181526020820151602082015292915050565b600060408284031215612f7657600080fd5b610b518383612f34565b601f82111561146b576000816000526020600020601f850160051c81016020861015612fa95750805b601f850160051c820191505b81811015612fc857828155600101612fb5565b505050505050565b81516001600160401b03811115612fe957612fe9612a19565b612ffd81612ff784546129e5565b84612f80565b602080601f831160018114613032576000841561301a5750858301515b600019600386901b1c1916600185901b178555612fc8565b600085815260208120601f198616915b8281101561306157888601518255948401946001909101908401613042565b508582101561307f5787850151600019600388901b60f8161c191681555b5050505050600190811b01905550565b600060208083018184528085518083526040925060408601915060408160051b87010184880160005b8381101561310c57888303603f190185528151805163ffffffff1684528781015161ffff168885015286015160608785018190526130f8818601836123ca565b9689019694505050908601906001016130b8565b509098975050505050505050565b60006080828403121561312c57600080fd5b613134612a2f565b82518152602083015161314681612cf1565b60208201526131588460408501612f34565b60408201529392505050565b634e487b7160e01b600052601160045260246000fd5b60008261319757634e487b7160e01b600052601260045260246000fd5b500490565b808202811582820484141761099b5761099b613164565b8035602083101561099b57600019602084900360031b1b1692915050565b6001600160c01b031981358181169160088510156131f95780818660080360031b1b83161692505b505092915050565b6001600160401b0360c01b8560c01b16815263ffffffff60e01b8460e01b16600882015282600c8201526000825161324081602c8501602087016123a6565b91909101602c0195945050505050565b8082018082111561099b5761099b613164565b8481526001600160401b0360c01b8460c01b166020820152826028820152600082516132968160488501602087016123a6565b9190910160480195945050505050565b6000602082840312156132b857600080fd5b8151610b5181612409565b60008251612ca18184602087016123a656fea2646970667358221220560f044f22c2dd87ffb59862023c40f770ff3d8a88b0a8f4556fda876343244a64736f6c63430008160033",
  "linkReferences": {},
  "deployedLinkReferences": {}
}